:020000040800F2
:1000000000000220A50E0008F50E0008F50E0008FD
:10001000F50E0008F50E0008F50E000800000000BF
:10002000000000000000000000000000F50E0008C5
:10003000F50E000800000000F50E00085907000842
:10004000F50E0008F50E0008F50E0008F50E000884
:10005000F50E0008F50E0008F50E0008F50E000874
:10006000F50E0008F50E0008F50E0008F50E000864
:10007000F50E0008F50E0008F50E0008F50E000854
:10008000F50E0008F50E0008F50E0008F50E000844
:10009000F50E0008F50E0008F50E0008F50E000834
:1000A000F50E0008F50E0008F50E0008F50E000824
:1000B000F50E0008F50E0008F50E0008F50E000814
:1000C000F50E0008F50E0008F50E0008F50E000804
:1000D000F50E0008F50E0008F50E0008F50E0008F4
:1000E000F50E0008F50E0008F50E0008F50E0008E4
:1000F000F50E0008F50E0008F50E0008F50E0008D4
:10010000F50E0008F50E0008F50E0008F50E0008C3
:10011000F50E0008F50E0008F50E0008F50E0008B3
:10012000F50E0008F50E0008F50E0008F50E0008A3
:10013000F50E00080000000000000000F50E0008A9
:10014000F50E0008F50E0008F50E0008F50E000883
:10015000F50E0008F50E0008F50E0008F50E000873
:10016000F50E0008F50E0008F50E0008F50E000863
:10017000F50E0008F50E0008F50E0008000000005E
:1001800000000000F50E0008000000000000000064
:10019000F50E00080000000000000000F50E000849
:1001A000000000000000000000000000F50E000844
:1001B000F50E0008F50E0008F50E0008F50E000813
:0401C000F50E000830
:100200000348044B834202D0034B03B118477047A5
:1002100010000020100000200000000005480649E2
:100220000B1AD90F01EBA301491002D0034B03B104
:100230001847704710000020100000200000000048
:1002400010B5064C237843B9FFF7DAFF044B13B11E
:100250000448AFF300800123237010BD100000207C
:1002600000000000F80E000808B5044B1BB104495B
:100270000448AFF30080BDE80840CFE7000000006D
:1002800014000020F80E000870B50D4E0D4D761BC1
:10029000B61006D0002455F8043B01349847A64216
:1002A000F9D1094E094D761B00F026FEB61006D096
:1002B000002455F8043B01349847A642F9D170BD9B
:1002C000400F0008400F0008440F0008400F0008CE
:1002D000000000000000000000000000000000001E
:1002E000000000000000000000000000000000000E
:1002F00000000000000000000000000000000000FE
:1003000090F800F06DE9024520F007016FF0000C55
:1003100010F0070491F820F040F049804FF00004FD
:100320006FF00700D1E9002391F840F000F10800D8
:1003300082FA4CF2A4FA8CF283FA4CF3A2FA8CF310
:100340004BBBD1E9022382FA4CF200F10800A4FA77
:100350008CF283FA4CF3A2FA8CF3E3B9D1E90423CB
:1003600082FA4CF200F10800A4FA8CF283FA4CF302
:10037000A2FA8CF37BB9D1E9062301F1200182FABC
:100380004CF200F10800A4FA8CF283FA4CF3A2FAC2
:100390008CF3002BC6D0002A04BF04301A4612BAD0
:1003A000B2FA82F2FDE8024500EBD2007047D1E9D3
:1003B000002304F00305C4F100004FEAC50514F062
:1003C000040F91F840F00CFA05F562EA05021CBF33
:1003D00063EA050362464FF00004A9E753B94AB93E
:1003E000002908BF00281CBF4FF0FF314FF0FF303D
:1003F00000F074B9ADF1080C6DE904CE00F006F818
:10040000DDF804E0DDE9022304B070472DE9F04790
:10041000089D04468E46002B4DD18A42944669D9E8
:10042000B2FA82F252B101FA02F3C2F1200120FACB
:1004300001F10CFA02FC41EA030E94404FEA1C4819
:10044000210CBEFBF8F61FFA8CF708FB16E341EA15
:10045000034306FB07F199420AD91CEB030306F19B
:10046000FF3080F01F81994240F21C81023E6344BC
:100470005B1AA4B2B3FBF8F008FB103344EA034460
:1004800000FB07F7A7420AD91CEB040400F1FF3375
:1004900080F00A81A74240F207816444023840EAB2
:1004A0000640E41B00261DB1D4400023C5E90043EB
:1004B0003146BDE8F0878B4209D9002D00F0EF806E
:1004C0000026C5E9000130463146BDE8F087B3FAA1
:1004D00083F6002E4AD18B4202D3824200F2F98089
:1004E000841A61EB030301209E46002DE0D0C5E98C
:1004F000004EDDE702B9FFDEB2FA82F2002A40F0D8
:100500009280A1EB0C014FEA1C471FFA8CFE0126DA
:10051000200CB1FBF7F307FB131140EA01410EFB7E
:1005200003F0884208D91CEB010103F1FF3802D225
:10053000884200F2CB804346091AA4B2B1FBF7F01F
:1005400007FB101144EA01440EFB00FEA64508D942
:100550001CEB040400F1FF3102D2A64500F2BB807F
:100560000846A4EB0E0440EA03409CE7C6F12007CE
:10057000B34022FA07FC4CEA030C20FA07F401FA14
:1005800006F31C43F9404FEA1C4900FA06F3B1FB9D
:10059000F9F8200C1FFA8CFE09FB181140EA014102
:1005A00008FB0EF0884202FA06F20BD91CEB01019F
:1005B00008F1FF3A80F08880884240F28580A8F1F7
:1005C00002086144091AA4B2B1FBF9F009FB101149
:1005D00044EA014100FB0EFE8E4508D91CEB0101E7
:1005E00000F1FF346CD28E456AD90238614440EA8A
:1005F0000840A0FB0294A1EB0E01A142C846A6460A
:1006000056D353D05DB1B3EB080261EB0E0101FA92
:1006100007F722FA06F3F1401F43C5E900710026EF
:100620003146BDE8F087C2F12003D8400CFA02FC45
:1006300021FA03F3914001434FEA1C471FFA8CFE55
:10064000B3FBF7F007FB10360B0C43EA064300FB45
:100650000EF69E4204FA02F408D91CEB030300F1E3
:10066000FF382FD29E422DD9023863449B1B89B29A
:10067000B3FBF7F607FB163341EA034106FB0EF323
:100680008B4208D91CEB010106F1FF3816D28B42D0
:1006900014D9023E6144C91A46EA004638E72E469C
:1006A000284605E70646E3E61846F8E64B45A9D294
:1006B000B9EB020864EB0C0E0138A3E74646EAE703
:1006C000204694E74046D1E7D0467BE7023B6144B1
:1006D00032E7304609E76444023842E7704700BF1A
:1006E000FEE7000008B50948094B03604FF4E13309
:1006F000436000238360C360036183610C23436113
:1007000000F02AFB00B908BDFFF7EAFF2C0000202B
:100710000044004038B500F027FAFFF7E3FF0C4B28
:100720001D682846FFF7ECFD84B24FF0FF332246E8
:100730002946084800F03FFB40B94FF0FF332246FE
:1007400003490968034800F036FBF6E7FFF7C8FFE6
:10075000000000202C00002008B500F01FFA00F077
:10076000D8F908BD08B5032000F066F90B4A536AB2
:1007700043F4E0235362002211466FF00B0000F0B7
:100780006DF9002211466FF00A0000F067F90022AF
:1007900011466FF0090000F061F908BD00ED00E0BE
:1007A00030B589B000240194184B1A6C42F4003221
:1007B0001A641A6C02F400320192019A02941A6BC4
:1007C00042F001021A631B6B03F001030293029BC8
:1007D0000423039302230493012305930694072320
:1007E00007930B4D03A9284600F03AF8082303931A
:1007F00003A9284600F034F8262000F067F92246C5
:100800000F21262000F02AF909B030BD003802403F
:1008100000000240014B1868704700BF0C00002028
:1008200008B5FFF7F7FF044B9B68C3F38223034A25
:10083000D35CD84008BD00BF00380240300F00082C
:1008400008B5FFF7E7FF044B9B68C3F34233034A45
:10085000D35CD84008BD00BF00380240300F00080C
:1008600000230F2B00F2DE8070B582B060E0856857
:100870005E000324B44025EA0405CC68B4402C4350
:100880008460456825EA02054C68C4F300129A406A
:100890002A4342605AE0DC08083450F8246003F030
:1008A000070295000F22AA4026EA020E0A69AA4012
:1008B00042EA0E0240F824205CE0062200E000221A
:1008C00002FA0EF22A430234574D45F82420574AC3
:1008D00094686FEA0C0224EA0C054E6816F4801F37
:1008E00001D04CEA0405514CA560E46802EA040515
:1008F0004E6816F4001F01D04CEA04054B4CE5602D
:10090000646802EA04054E6816F4003F01D04CEA20
:100910000405464C6560246822404D6815F4803F0C
:1009200001D04CEA0402414C226001330F2B77D8EE
:1009300001229A400C6804EA020C32EA0404F4D161
:100940004C6804F00304013C012C90D94A6802F081
:100950000302032A09D0C4685D000322AA4024EAE6
:1009600002048A68AA402243C2604A6802F0030275
:10097000022A90D004684FEA430E032202FA0EF2D4
:1009800024EA02044A6802F0030202FA0EF2224349
:1009900002604A6812F4403FC7D000220192244A04
:1009A000546C44F480445464526C02F480420192CA
:1009B000019A9C08A51C1C4A52F8255003F003021A
:1009C0004FEA820E0F2202FA0EF225EA0205194AB8
:1009D00090423FF474AF02F58062904216D002F567
:1009E0008062904214D002F58062904212D002F5EB
:1009F0008062904210D002F5806290420ED002F5E3
:100A0000806290423FF459AF072259E7012257E72D
:100A1000022255E7032253E7042251E705224FE75C
:100A200002B070BD704700BF00380140003C01407B
:100A30000038024000000240074AD36823F4E06314
:100A40001B041B0C000200F4E060034343F0BF638F
:100A500043F40033D360704700ED00E000B5194B5C
:100A6000DB68C3F30223C3F1070CBCF1040F28BFFA
:100A70004FF0040C03F1040EBEF1060F18D9033B2E
:100A80004FF0FF3E0EFA0CFC21EA0C0199400EFAE1
:100A900003F322EA0303194300280BDB0901C9B25F
:100AA00000F1604000F5614080F800135DF804FB40
:100AB0000023E5E700F00F000901C9B2024B195409
:100AC000F4E700BF00ED00E014ED00E0002807DBD4
:100AD00000F01F02400901239340024A42F82030EF
:100AE000704700BF00E100E00138B0F1807F0BD219
:100AF0004FF0E0235861054AF02182F823100020CE
:100B0000986107221A6170470120704700ED00E0EC
:100B1000704708B5FFF7FCFF08BD000010B504469C
:100B20000E4B18784FF47A73B3FBF0F30C4A10684D
:100B3000B0FBF3F0FFF7D8FF68B90F2C01D9012003
:100B40000AE0002221464FF0FF30FFF787FF054BF8
:100B50001C60002000E0012010BD00BF0400002048
:100B60000C0000200800002008B50B4B1A6842F466
:100B700000721A601A6842F480621A601A6842F4BD
:100B800080721A600320FFF757FF0020FFF7C6FFAF
:100B9000FFF7E8FD002008BD003C0240034A116851
:100BA000034B1B780B441360704700BF700000209C
:100BB00004000020014B1868704700BF700000203F
:100BC00038B504460268136923F44053C1680B43E7
:100BD000136183680269134342691343C2691A436C
:100BE0000168CB6823F4164323F00C031343CB6056
:100BF0000268536923F4407381690B4353610368AE
:100C0000314A934206D002F58062934202D0FFF748
:100C100007FE01E0FFF714FEE369B3F5004F29D0AA
:100C20000021031849411B1841F10001C90041EAA4
:100C30005371DB00181863684FEA83024FEA93731D
:100C400041F10001FFF7CAFB204DA5FB003251091D
:100C5000642303FB11031B013233A5FB03235B0950
:100C600003F0F00202EB011203F00F0321681344BA
:100C70008B6038BD0023021843EB0301121841F1C9
:100C80000001C90041EA5271D200101841F100017F
:100C9000626892185B41FFF7A1FB0C4DA5FB003287
:100CA0005109642303FB1103DB003233A5FB03234B
:100CB0005B095A0002F4F87202EB011203F0070319
:100CC000216813448B60D4E7001001401F85EB516D
:100CD0002DE9F84305460F4616469946DDF8208073
:100CE0002C68246837EA04030CBF4FF0010C4FF066
:100CF000000CB4452DD1B8F1FF3FF1D0B8F1000F91
:100D000005D0FFF757FFA0EB09004045E8D92A6856
:100D100002F10C0353E8003F23F4D0730C3242E895
:100D200000310029F3D12A6802F1140353E8003F8F
:100D300023F00103143242E800310029F3D12023CB
:100D400085F83D3085F83E30002385F83C3003209F
:100D500000E00020BDE8F88358B310B5044690F8D1
:100D60003D300BB3242384F83D302268D36823F44C
:100D70000053D3602046FFF723FF2268136923F452
:100D8000904313612268536923F02A035361226858
:100D9000D36843F40053D36000202064202384F8F8
:100DA0003D3084F83E3010BD80F83C30FFF7F8FC51
:100DB000D8E7012070472DE9F04182B01E4690F837
:100DC0003D30DBB2202B54D104460D46904600291D
:100DD00053D0002A53D090F83C30012B51D001233E
:100DE00080F83C3000230364212380F83D30FFF776
:100DF000E1FE0746A4F82480A4F82680A368B3F592
:100E0000805F05D04FF00008002384F83C3012E0EA
:100E1000236913B14FF00008F6E7A8460025F3E771
:100E200038F8023B2268C3F308035360E28C92B2A5
:100E3000013A92B2E284E38C9BB273B100963B46D6
:100E4000002280212046FFF743FFE0B9002DE7D0C4
:100E500015F8012B23685A60E8E700963B4600220C
:100E600040212046FFF734FF78B9202384F83D3035
:100E700000E0022002B0BDE8F0810120FAE7012085
:100E8000F8E70220F6E70320F4E70320F2E700008A
:100E9000034AD2F8883043F47003C2F888307047B0
:100EA00000ED00E0DFF834D00D480E490E4A002373
:100EB00002E0D458C4500433C4188C42F9D30B4A0E
:100EC0000B4C002301E013600432A242FBD3FFF776
:100ED000DFFFFFF7D9F9FFF71DFC70470000022084
:100EE0000000002010000020480F00081000002023
:100EF00074000020FEE70000F8B500BFF8BC08BC95
:100F00009E467047F8B500BFF8BC08BC9E467047C7
:100F1000546865206170706C69636174696F6E20DC
:100F200069732072756E6E696E670D0A00000000AD
:080F30000000000001020304AF
:080F3800D4F4FF7F010000006A
:040F4000690200083A
:040F4400410200085E
:100F4800100F000801000000100000000024F40049
:0400000508000EA53C
:00000001FF
