:020000040800F2
:1000000000000220490B0008990B0008990B00081A
:10001000990B0008990B0008990B000800000000DC
:10002000000000000000000000000000990B000824
:10003000990B000800000000990B0008990B0008BC
:10004000990B0008990B0008990B0008990B000800
:10005000990B0008990B0008990B0008990B0008F0
:10006000990B0008990B0008990B0008990B0008E0
:10007000990B0008990B0008990B0008990B0008D0
:10008000990B0008990B0008990B0008990B0008C0
:10009000990B0008990B0008990B0008990B0008B0
:1000A000990B0008990B0008990B0008990B0008A0
:1000B000990B0008990B0008990B0008990B000890
:1000C000990B0008990B0008990B0008990B000880
:1000D000990B0008990B0008990B0008990B000870
:1000E000990B0008990B0008990B0008990B000860
:1000F000990B0008990B0008990B0008990B000850
:10010000990B0008990B0008990B0008990B00083F
:10011000990B0008990B0008990B0008990B00082F
:10012000990B0008990B0008990B0008990B00081F
:10013000990B00080000000000000000990B000867
:10014000990B0008990B0008990B0008990B0008FF
:10015000990B0008990B0008990B0008990B0008EF
:10016000990B0008990B0008990B0008990B0008DF
:10017000990B0008990B0008990B0008000000007B
:1001800000000000990B00080000000000000000C3
:10019000990B00080000000000000000990B000807
:1001A000000000000000000000000000990B0008A3
:1001B000990B0008990B0008990B0008990B00088F
:0401C000990B00088F
:1001C4000348044B834202D0034B03B118477047E2
:1001D4000C0000200C000020000000000548064927
:1001E4000B1AD90F01EBA301491002D0034B03B141
:1001F400184770470C0000200C000020000000008D
:1002040010B5064C237843B9FFF7DAFF044B13B15A
:100214000448AFF300800123237010BD0C000020BC
:10022400000000009C0B000808B5044B1BB10449F6
:100234000448AFF30080BDE80840CFE700000000A9
:10024400100000209C0B000870B50D4E0D4D761B60
:10025400B61006D0002455F8043B01349847A64252
:10026400F9D1094E094D761B00F096FCB61006D064
:10027400002455F8043B01349847A642F9D170BDD7
:10028400C40B0008C40B0008C80B0008C40B00080A
:1002940053B94AB9002908BF00281CBF4FF0FF31E9
:1002A4004FF0FF3000F074B9ADF1080C6DE904CEE5
:1002B40000F006F8DDF804E0DDE9022304B070473D
:1002C4002DE9F047089D04468E46002B4DD18A4205
:1002D400944669D9B2FA82F252B101FA02F3C2F138
:1002E400200120FA01F10CFA02FC41EA030E9440C9
:1002F4004FEA1C48210CBEFBF8F61FFA8CF708FBEA
:1003040016E341EA034306FB07F199420AD91CEBC1
:10031400030306F1FF3080F01F81994240F21C81F3
:10032400023E63445B1AA4B2B3FBF8F008FB10333B
:1003340044EA034400FB07F7A7420AD91CEB040470
:1003440000F1FF3380F00A81A74240F20781644440
:10035400023840EA0640E41B00261DB1D4400023C5
:10036400C5E900433146BDE8F0878B4209D9002D29
:1003740000F0EF800026C5E9000130463146BDE8B3
:10038400F087B3FA83F6002E4AD18B4202D382421D
:1003940000F2F980841A61EB030301209E46002DCC
:1003A400E0D0C5E9004EDDE702B9FFDEB2FA82F221
:1003B400002A40F09280A1EB0C014FEA1C471FFA7F
:1003C4008CFE0126200CB1FBF7F307FB131140EA66
:1003D40001410EFB03F0884208D91CEB010103F133
:1003E400FF3802D2884200F2CB804346091AA4B2F5
:1003F400B1FBF7F007FB101144EA01440EFB00FEC9
:10040400A64508D91CEB040400F1FF3102D2A6452D
:1004140000F2BB800846A4EB0E0440EA03409CE7CC
:10042400C6F12007B34022FA07FC4CEA030C20FA79
:1004340007F401FA06F31C43F9404FEA1C4900FA99
:1004440006F3B1FBF9F8200C1FFA8CFE09FB181116
:1004540040EA014108FB0EF0884202FA06F20BD989
:100464001CEB010108F1FF3A80F08880884240F2D9
:100474008580A8F102086144091AA4B2B1FBF9F01D
:1004840009FB101144EA014100FB0EFE8E4508D918
:100494001CEB010100F1FF346CD28E456AD902389D
:1004A400614440EA0840A0FB0294A1EB0E01A14282
:1004B400C846A64656D353D05DB1B3EB080261EBF0
:1004C4000E0101FA07F722FA06F3F1401F43C5E9CA
:1004D400007100263146BDE8F087C2F12003D84000
:1004E4000CFA02FC21FA03F3914001434FEA1C4742
:1004F4001FFA8CFEB3FBF7F007FB10360B0C43EA34
:10050400064300FB0EF69E4204FA02F408D91CEBE3
:10051400030300F1FF382FD29E422DD902386344E1
:100524009B1B89B2B3FBF7F607FB163341EA034181
:1005340006FB0EF38B4208D91CEB010106F1FF38D0
:1005440016D28B4214D9023E6144C91A46EA0046C7
:1005540038E72E46284605E70646E3E61846F8E659
:100564004B45A9D2B9EB020864EB0C0E0138A3E7A2
:100574004646EAE7204694E74046D1E7D0467BE783
:10058400023B614432E7304609E76444023842E7FB
:10059400704700BFFEE7000008B50948094B036037
:1005A4004FF4E133436000238360C36003618361DC
:1005B4000C23436100F08CFA00B908BDFFF7EAFF91
:1005C400280000200044004008B500F0DFF9FFF7E0
:1005D400E3FFFEE708B5032000F054F90B4A536A21
:1005E40043F4E0235362002211466FF00B0000F045
:1005F4005BF9002211466FF00A0000F055F9002261
:1006040011466FF0090000F04FF908BD00ED00E05D
:1006140010B586B0002100910F4B1A6C42F40032E1
:100624001A641B6C03F400330093009B04230193AE
:100634000223029301230393049107230593074C98
:1006440001A9204600F032F80823019301A92046AD
:1006540000F02CF806B010BD003802400000024043
:10066400014B1868704700BF0800002008B5FFF769
:10067400F7FF044B9B68C3F38223034AD35CD8403F
:1006840008BD00BF00380240B40B000808B5FFF7EE
:10069400E7FF044B9B68C3F34233034AD35CD8405F
:1006A40008BD00BF00380240B40B000800230F2B24
:1006B40000F2DE8070B582B060E085685E000324DD
:1006C400B44025EA0405CC68B4402C4384604568F2
:1006D40025EA02054C68C4F300129A402A4342609A
:1006E4005AE0DC08083450F8246003F0070295004F
:1006F4000F22AA4026EA020E0A69AA4042EA0E0222
:1007040040F824205CE0062200E0002202FA0EF207
:100714002A430234574D45F82420574A94686FEA17
:100724000C0224EA0C054E6816F4801F01D04CEA32
:100734000405514CA560E46802EA04054E6816F409
:10074400001F01D04CEA04054B4CE560646802EAE2
:1007540004054E6816F4003F01D04CEA0405464CEB
:100764006560246822404D6815F4803F01D04CEA4E
:100774000402414C226001330F2B77D801229A40A6
:100784000C6804EA020C32EA0404F4D14C6804F064
:100794000304013C012C90D94A6802F00302032AA5
:1007A40009D0C4685D000322AA4024EA02048A68CE
:1007B400AA402243C2604A6802F00302022A90D08F
:1007C40004684FEA430E032202FA0EF224EA0204FA
:1007D4004A6802F0030202FA0EF2224302604A68F7
:1007E40012F4403FC7D000220192244A546C44F4CE
:1007F40080445464526C02F480420192019A9C0831
:10080400A51C1C4A52F8255003F003024FEA820E3D
:100814000F2202FA0EF225EA0205194A90423FF429
:1008240074AF02F58062904216D002F58062904265
:1008340014D002F58062904212D002F58062904298
:1008440010D002F5806290420ED002F58062904290
:100854003FF459AF072259E7012257E7022255E72F
:10086400032253E7042251E705224FE702B070BD8B
:10087400704700BF00380140003C0140003802408E
:1008840000000240074AD36823F4E0631B041B0CF6
:10089400000200F4E060034343F0BF6343F4003319
:1008A400D360704700ED00E000B5194BDB68C3F37B
:1008B4000223C3F1070CBCF1040F28BF4FF0040C52
:1008C40003F1040EBEF1060F18D9033B4FF0FF3EAF
:1008D4000EFA0CFC21EA0C0199400EFA03F322EA09
:1008E4000303194300280BDB0901C9B200F160407E
:1008F40000F5614080F800135DF804FB0023E5E790
:1009040000F00F000901C9B2024B1954F4E700BF0B
:1009140000ED00E014ED00E00138B0F1807F0BD26F
:100924004FF0E0235861054AF02182F8231000209B
:10093400986107221A6170470120704700ED00E0BA
:1009440010B504460E4B18784FF47A73B3FBF0F3EA
:100954000C4A1068B0FBF3F0FFF7DEFF68B90F2C08
:1009640001D901200AE0002221464FF0FF30FFF7B1
:100974009BFF054B1C60002000E0012010BD00BF60
:1009840000000020080000200400002008B50B4BE4
:100994001A6842F400721A601A6842F480621A609B
:1009A4001A6842F480721A600320FFF76BFF00207C
:1009B400FFF7C6FFFFF70EFE002008BD003C024013
:1009C40038B504460268136923F44053C1680B43E5
:1009D400136183680269134342691343C2691A436A
:1009E4000168CB6823F4164323F00C031343CB6054
:1009F4000268536923F4407381690B4353610368AC
:100A0400314A934206D002F58062934202D0FFF746
:100A14002DFE01E0FFF73AFEE369B3F5004F29D05C
:100A24000021031849411B1841F10001C90041EAA2
:100A34005371DB00181863684FEA83024FEA93731B
:100A440041F10001FFF724FC204DA5FB00325109C0
:100A5400642303FB11031B013233A5FB03235B094E
:100A640003F0F00202EB011203F00F0321681344B8
:100A74008B6038BD0023021843EB0301121841F1C7
:100A84000001C90041EA5271D200101841F100017D
:100A9400626892185B41FFF7FBFB0C4DA5FB00322B
:100AA4005109642303FB1103DB003233A5FB032349
:100AB4005B095A0002F4F87202EB011203F0070317
:100AC400216813448B60D4E7001001401F85EB516B
:100AD40058B310B5044690F83D300BB3242384F882
:100AE4003D302268D36823F40053D3602046FFF7D7
:100AF40067FF2268136923F49043136122685369E2
:100B040023F02A0353612268D36843F40053D3606B
:100B140000202064202384F83D3084F83E3010BD4A
:100B240080F83C30FFF774FDD8E7012070470000DF
:100B3400034AD2F8883043F47003C2F8883070470F
:100B440000ED00E0DFF834D00D480E490E4A0023D2
:100B540002E0D458C4500433C4188C42F9D30B4A6D
:100B64000B4C002301E013600432A242FBD3FFF7D5
:100B7400DFFFFFF769FBFFF727FD70470000022046
:100B8400000000200C000020CC0B00080C0000200A
:100B94006C000020FEE70000F8B500BFF8BC08BCFC
:100BA4009E467047F8B500BFF8BC08BC9E46704727
:080BB40000000000010203042F
:080BBC0008F7FF7F01000000B3
:040BC4002D020008F6
:040BC800050200081A
:0C0BCC0001000000100000000024F400F4
:0400000508000B499B
:00000001FF
