:020000040800F2
:10000000000002202904000879040008790400088F
:100010007904000879040008790400080000000051
:10002000000000000000000000000000790400084B
:100030007904000800000000790400087904000831
:10004000790400087904000879040008790400089C
:10005000790400087904000879040008790400088C
:10006000790400087904000879040008790400087C
:10007000790400087904000879040008790400086C
:10008000790400087904000879040008790400085C
:10009000790400087904000879040008790400084C
:1000A000790400087904000879040008790400083C
:1000B000790400087904000879040008790400082C
:1000C000790400087904000879040008790400081C
:1000D000790400087904000879040008790400080C
:1000E00079040008790400087904000879040008FC
:1000F00079040008790400087904000879040008EC
:1001000079040008790400087904000879040008DB
:1001100079040008790400087904000879040008CB
:1001200079040008790400087904000879040008BB
:1001300079040008000000000000000079040008B5
:10014000790400087904000879040008790400089B
:10015000790400087904000879040008790400088B
:10016000790400087904000879040008790400087B
:1001700079040008790400087904000800000000F0
:1001800000000000790400080000000000000000EA
:100190007904000800000000000000007904000855
:1001A00000000000000000000000000079040008CA
:1001B000790400087904000879040008790400082B
:0401C00079040008B6
:1001C4000348044B834202D0034B03B118477047E2
:1001D4000C0000200C000020000000000548064927
:1001E4000B1AD90F01EBA301491002D0034B03B141
:1001F400184770470C0000200C000020000000008D
:1002040010B5064C237843B9FFF7DAFF044B13B15A
:100214000448AFF300800123237010BD0C000020BC
:10022400000000007C04000808B5044B1BB104491D
:100234000448AFF30080BDE80840CFE700000000A9
:10024400100000207C04000870B50D4E0D4D761B87
:10025400B61006D0002455F8043B01349847A64252
:10026400F9D1094E094D761B00F006F9B61006D0F7
:10027400002455F8043B01349847A642F9D170BDD7
:1002840094040008940400089804000894040008E6
:1002940008B500F0A3F8FEE708B5032000F01AF84B
:1002A4000B4A536A43F4E0235362002211466FF071
:1002B4000B0000F021F8002211466FF00A0000F054
:1002C4001BF8002211466FF0090000F015F808BD74
:1002D40000ED00E0074AD36823F4E0631B041B0C21
:1002E400000200F4E060034343F0BF6343F40033CF
:1002F400D360704700ED00E000B5194BDB68C3F331
:100304000223C3F1070CBCF1040F28BF4FF0040C07
:1003140003F1040EBEF1060F18D9033B4FF0FF3E64
:100324000EFA0CFC21EA0C0199400EFA03F322EABE
:100334000303194300280BDB0901C9B200F1604033
:1003440000F5614080F800135DF804FB0023E5E745
:1003540000F00F000901C9B2024B1954F4E700BFC1
:1003640000ED00E014ED00E00138B0F1807F0BD225
:100374004FF0E0235861054AF02182F82310002051
:10038400986107221A6170470120704700ED00E070
:1003940010B504460E4B18784FF47A73B3FBF0F3A0
:1003A4000C4A1068B0FBF3F0FFF7DEFF68B90F2CBE
:1003B40001D901200AE0002221464FF0FF30FFF767
:1003C4009BFF054B1C60002000E0012010BD00BF16
:1003D40000000020080000200400002008B50B4B9A
:1003E4001A6842F400721A601A6842F480621A6051
:1003F4001A6842F480721A600320FFF76BFF002032
:10040400FFF7C6FFFFF748FF002008BD003C02408D
:10041400034AD2F8883043F47003C2F88830704736
:1004240000ED00E0DFF834D00D480E490E4A0023F9
:1004340002E0D458C4500433C4188C42F9D30B4A94
:100444000B4C002301E013600432A242FBD3FFF7FC
:10045400DFFFFFF7F9FEFFF71BFF704700000220E4
:10046400000000200C0000209C0400080C00002068
:1004740028000020FEE70000F8B500BFF8BC08BC67
:100484009E467047F8B500BFF8BC08BC9E4670474E
:040494002D0200082D
:040498000502000851
:0C049C0001000000100000000024F4002B
:0400000508000429C2
:00000001FF
