:020000040800F2
:100000000000022071120008750700087707000839
:10001000790700087B0700087D0700080000000042
:100020000000000000000000000000007F07000842
:10003000810700080000000083070008850700080A
:10004000C1120008C1120008C1120008C112000844
:10005000C1120008C1120008C1120008C112000834
:10006000C1120008C1120008C1120008C112000824
:10007000C1120008C1120008C1120008C112000814
:10008000C1120008C1120008C1120008C112000804
:10009000C1120008C1120008C1120008C1120008F4
:1000A000C1120008C1120008C1120008C1120008E4
:1000B000C1120008C1120008C1120008C1120008D4
:1000C000C1120008C1120008C1120008C1120008C4
:1000D000C1120008C1120008C1120008C1120008B4
:1000E000C1120008C1120008C1120008C1120008A4
:1000F000C1120008C1120008C1120008C112000894
:10010000C1120008C1120008C1120008C112000883
:10011000C1120008C1120008C1120008C112000873
:10012000C1120008C1120008C1120008C112000863
:10013000C11200080000000000000000C112000809
:10014000C1120008C1120008C1120008C112000843
:10015000C1120008C1120008C1120008C112000833
:10016000C1120008C1120008C1120008C112000823
:10017000C1120008C1120008C112000800000000EE
:1001800000000000C1120008000000000000000094
:10019000C11200080000000000000000C1120008A9
:1001A000000000000000000000000000C112000874
:1001B000C1120008C1120008C1120008C1120008D3
:0401C000C112000860
:1001C4000348044B834202D0034B03B118477047E2
:1001D4000C0000200C000020000000000548064927
:1001E4000B1AD90F01EBA301491002D0034B03B141
:1001F400184770470C0000200C000020000000008D
:1002040010B5064C237843B9FFF7DAFF044B13B15A
:100214000448AFF300800123237010BD0C000020BC
:1002240000000000C412000808B5044B1BB10449C7
:100234000448AFF30080BDE80840CFE700000000A9
:1002440010000020C412000870B50D4E0D4D761B31
:10025400B61006D0002455F8043B01349847A64252
:10026400F9D1094E094D761B01F02AF8B61006D0D3
:10027400002455F8043B01349847A642F9D170BDD7
:10028400F4120008F4120008F8120008F41200082E
:10029400830730B548D0541E002A3FD0CAB2034663
:1002A40001E0013C3AD303F8012B9D07F9D1032C5B
:1002B4002DD9CDB245EA05250F2C45EA054536D999
:1002C400A4F1100222F00F0C03F1200EE6444FEAD1
:1002D400121C03F1100242E9045542E9025510329E
:1002E4007245F8D10CF1010214F00C0F03EB021269
:1002F40004F00F0C13D0ACF1040323F00303043314
:10030400134442F8045B9342FBD10CF003042CB178
:10031400CAB21C4403F8012B9C42FBD130BD644695
:100324001346002CF4D1F9E703461446BFE71A46F6
:10033400A446E0E753B94AB9002908BF00281CBF06
:100344004FF0FF314FF0FF3000F074B9ADF1080CFD
:100354006DE904CE00F006F8DDF804E0DDE90223DF
:1003640004B070472DE9F047089D04468E46002BE3
:100374004DD18A42944669D9B2FA82F252B101FA55
:1003840002F3C2F1200120FA01F10CFA02FC41EA65
:10039400030E94404FEA1C48210CBEFBF8F61FFAEA
:1003A4008CF708FB16E341EA034306FB07F1994285
:1003B4000AD91CEB030306F1FF3080F01F81994238
:1003C40040F21C81023E63445B1AA4B2B3FBF8F012
:1003D40008FB103344EA034400FB07F7A7420AD999
:1003E4001CEB040400F1FF3380F00A81A74240F2C1
:1003F40007816444023840EA0640E41B00261DB12C
:10040400D4400023C5E900433146BDE8F0878B4260
:1004140009D9002D00F0EF800026C5E9000130461F
:100424003146BDE8F087B3FA83F6002E4AD18B42F9
:1004340002D3824200F2F980841A61EB03030120A3
:100444009E46002DE0D0C5E9004EDDE702B9FFDE8F
:10045400B2FA82F2002A40F09280A1EB0C014FEA3A
:100464001C471FFA8CFE0126200CB1FBF7F307FB97
:10047400131140EA01410EFB03F0884208D91CEB3A
:10048400010103F1FF3802D2884200F2CB804346D7
:10049400091AA4B2B1FBF7F007FB101144EA0144B6
:1004A4000EFB00FEA64508D91CEB040400F1FF3145
:1004B40002D2A64500F2BB800846A4EB0E0440EA33
:1004C40003409CE7C6F12007B34022FA07FC4CEA3C
:1004D400030C20FA07F401FA06F31C43F9404FEA2F
:1004E4001C4900FA06F3B1FBF9F8200C1FFA8CFE44
:1004F40009FB181140EA014108FB0EF0884202FA98
:1005040006F20BD91CEB010108F1FF3A80F0888058
:10051400884240F28580A8F102086144091AA4B215
:10052400B1FBF9F009FB101144EA014100FB0EFE96
:100534008E4508D91CEB010100F1FF346CD28E45C5
:100544006AD90238614440EA0840A0FB0294A1EB56
:100554000E01A142C846A64656D353D05DB1B3EBB3
:10056400080261EB0E0101FA07F722FA06F3F140E3
:100574001F43C5E9007100263146BDE8F087C2F18A
:100584002003D8400CFA02FC21FA03F39140014302
:100594004FEA1C471FFA8CFEB3FBF7F007FB10363B
:1005A4000B0C43EA064300FB0EF69E4204FA02F4E7
:1005B40008D91CEB030300F1FF382FD29E422DD93A
:1005C400023863449B1B89B2B3FBF7F607FB16336F
:1005D40041EA034106FB0EF38B4208D91CEB0101EF
:1005E40006F1FF3816D28B4214D9023E6144C91A6F
:1005F40046EA004638E72E46284605E70646E3E67F
:100604001846F8E64B45A9D2B9EB020864EB0C0E88
:100614000138A3E74646EAE7204694E74046D1E797
:10062400D0467BE7023B614432E7304609E7644445
:10063400023842E7704700BF30B587B00024019408
:10064400029403940494059400940E4B1A6B42F0A4
:1006540001021A631B6B03F001030093009B0A4D14
:1006640022462021284600F02DFD2023019301235A
:1006740002930394049401A9284600F037FC07B0C0
:1006840030BD00BF003802400000024072B6FEE7F1
:1006940000B595B03422002107A8FFF7F9FD002327
:1006A4000293039304930593069300931F4A116CDA
:1006B40041F080511164126C02F080520092009A51
:1006C40001931B490A6822F4404242F480420A60C2
:1006D4000A6802F440420192019A0222079201211F
:1006E4000A9110210B910D920E930F914FF4A87360
:1006F4001093042311931292139207A800F0D4F9D3
:1007040080B90F23029302210391002304934FF431
:1007140080520592069302A800F056F820B915B04D
:100724005DF804FBFFF7B2FFFFF7B0FF00380240AB
:100734000070004008B500F04FFDFFF7A9FFFFF778
:100744007BFF0A4C01222021204600F0BBFC4FF421
:100754007A7000F06DFD00222021204600F0B2FCEA
:100764004FF47A7000F064FDEBE700BF0000024034
:10077400FEE7FEE7FEE7FEE7FEE7704770477047D7
:1007840008B500F043FD08BD00B583B00021009119
:100794000C4B5A6C42F480425A645A6C02F4804204
:1007A4000092009A01911A6C42F080521A641B6CF8
:1007B40003F080530193019B072000F089FC03B0F0
:1007C4005DF804FB00380240002800F09B8070B5FF
:1007D4000D4604464F4B1B6803F00F038B4208D2AF
:1007E400CBB24C4A1370136803F00F038B4240F0F2
:1007F4008B80236813F0020F17D013F0040F04D07A
:10080400454A936843F4E0539360236813F0080F58
:1008140004D0414A936843F4604393603E4A93682A
:1008240023F0F003A1680B439360236813F0010FD6
:1008340032D06368012B21D09A1E012A25D9364A69
:10084400126812F0020F61D033498A6822F0030261
:1008540013438B6000F0E6FC06462F4B9B6803F0C5
:100864000C036268B3EB820F16D000F0DBFC801B34
:1008740041F288339842F0D9032042E0264A1268B4
:1008840012F4003FE0D101203BE0234A126812F049
:10089400007FD9D1012034E01E4B1B6803F00F0305
:1008A400AB4207D9EAB21B4B1A701B6803F00F0363
:1008B400AB422DD1236813F0040F06D0164A936877
:1008C40023F4E053E1680B439360236813F0080FAB
:1008D40007D0114A936823F46043216943EAC103B2
:1008E400936000F021F80C4B9B68C3F303130B4A8D
:1008F400D35CD8400A4B18600A4B186800F046FCD9
:10090400002070BD012070470120FAE70120F8E7BC
:100914000120F6E7003C024000380240DC120008E7
:10092400080000200400002008B55C4B9B6803F01D
:100934000C03082B07D00C2B5BD0042B01D0584898
:1009440008BD5848FCE7554B5A6802F03F025B6803
:1009540013F4800F2AD0514B5968C1F3881C4FEA15
:100964004C11B1EB0C006EEB0E0E4FEA8E1343EA02
:1009740090638101091A63EB0E03DB0043EA5173B0
:10098400C90011EB0C0C43F10003590200234FEA98
:100994004C2041EADC51FFF7CDFC404B5B68C3F3CC
:1009A400014301335B00B0FBF3F0C9E73B4B5968EB
:1009B400C1F3881C4FEA4C11B1EB0C006EEB0E0E28
:1009C4004FEA8E1343EA90638101091A63EB0E0325
:1009D400DB0043EA5173C90011EB0C0C43F1000333
:1009E400990200234FEA8C2041EA9C51FFF7A2FCB4
:1009F400D3E72A4B5A6802F03F025B6813F4800F76
:100A040028D0264B5968C1F3881C4FEA4C11B1EB2E
:100A14000C006EEB0E0E4FEA8E1343EA90638101D5
:100A2400091A63EB0E03DB0043EA5173C90011EBAF
:100A34000C0C43F10003590200234FEA4C2041EA15
:100A4400DC51FFF777FC154B5B68C3F30273B0FB13
:100A5400F3F075E7114B5968C1F3881C4FEA4C1148
:100A6400B1EB0C006EEB0E0E4FEA8E1343EA90636B
:100A74008101091A63EB0E03DB0043EA5173C900D9
:100A840011EB0C0C43F10003990200234FEA8C2074
:100A940041EA9C51FFF74EFCD5E700BF0038024005
:100AA4000024F40000127A00002800F0018270B5DE
:100AB40082B00446036813F0010F41D0994B9B6840
:100AC40003F00C03042B32D0964B9B6803F00C0309
:100AD400082B27D0934B9B6803F00C030C2B59D0A5
:100AE4006368B3F5803F5BD0B3F5A02F5ED08D4B28
:100AF4001A6822F480321A601A6822F480221A607A
:100B04006368002B5CD000F08DFB0546854B1B68A9
:100B140013F4003F14D100F085FB401B6428F5D981
:100B24000320CCE17F4B5B6813F4800FD2D07D4B64
:100B34001B6813F4003F03D06368002B00F0BA81F4
:100B4400236813F0020F60D0764B9B6813F00C0FF0
:100B54004AD0744B9B6803F00C03082B3FD0714BB5
:100B64009B6803F00C030C2B69D0E368002B75D051
:100B74006D4B01221A6000F055FB0546694B1B685A
:100B840013F0020F61D100F04DFB401B0228F5D990
:100B9400032094E1634B5B6813F4800FA0D0C6E795
:100BA400604A136843F480331360A9E75D4B1A6805
:100BB40042F480221A601A6842F480321A609FE775
:100BC40000F030FB0546574B1B6813F4003FB7D0C9
:100BD40000F028FB401B6428F5D903206FE1514B3A
:100BE4005B6813F4800FBAD14E4B1B6813F0020FED
:100BF40003D0E368012B40F05F814A4A136823F075
:100C0400F803216943EAC1031360236813F0080F52
:100C140049D06369002B33D0434B0122C3F8802EA3
:100C240000F000FB05463F4B5B6F13F0020F3AD117
:100C340000F0F8FA401B0228F5D903203FE1394BB4
:100C44005B6813F4800F90D1CEE7364A136823F023
:100C5400F803216943EAC1031360D6E7324B00224B
:100C64001A6000F0DFFA05462E4B1B6813F0020FE2
:100C7400CBD000F0D7FA401B0228F5D903201EE19F
:100C8400294B0022C3F8802E00F0CCFA0546254BF0
:100C94005B6F13F0020F06D000F0C4FA401B022869
:100CA400F5D903200BE1236813F0040F76D01D4B14
:100CB4001B6C13F0805F33D100230193194B1A6C22
:100CC40042F080521A641B6C03F080530193019B21
:100CD4000125164B1B6813F4807F29D0A368012BD0
:100CE4003AD0052B3ED00F4B1A6F22F001021A673F
:100CF4001A6F22F004021A67A368002B3CD000F09C
:100D040091FA0646074B1B6F13F0020F45D100F012
:100D140089FA801B41F288339842F3D90320CEE04C
:100D24000025D6E70038024000004742007000402A
:100D34006B4A136843F48073136000F073FA064639
:100D4400674B1B6813F4807FC8D100F06BFA801BDB
:100D54000228F5D90320B2E0624A136F43F001037D
:100D64001367C9E75F4B1A6F42F004021A671A6FE0
:100D740042F001021A67BFE700F054FA0646594BE5
:100D84001B6F13F0020F08D000F04CFA801B41F2E5
:100D940088339842F3D9032091E0EDB9A369002B7D
:100DA40000F08C804F4A926802F00C02082A54D05A
:100DB400022B17D04C4B00221A6600F033FA04467B
:100DC400484B1B6813F0007F45D000F02BFA001B42
:100DD4000228F5D9032072E0424A136C23F08053B1
:100DE4001364DBE7404B00221A6600F01BFA054649
:100DF4003C4B1B6813F0007F06D000F013FA401B35
:100E04000228F5D903205AE0E369226A1343626A8F
:100E140043EA8213A26A5208013A43EA0243E26AAD
:100E240043EA0263226B43EA02732E4A53602E4B59
:100E340001221A6600F0F6F904462A4B1B6813F0E7
:100E4400007F06D100F0EEF9001B0228F5D903203B
:100E540035E0002033E0002031E0012B31D0214B7C
:100E64005B6803F48001E26991422CD103F03F02F4
:100E7400216A8A4229D1616A47F6C0721A40B2EBEC
:100E8400811F24D103F44031A26A5208013AB1EB24
:100E9400024F1ED103F07062E16AB2EB016F1AD106
:100EA40003F0E043226BB3EB027F16D1002006E08F
:100EB40001207047012002E0012000E0002002B080
:100EC40070BD0120FBE70120F9E70120F7E70120CD
:100ED400F5E70120F3E70120F1E70120EFE700BF88
:100EE40000700040003802400000474200230F2BEE
:100EF40000F2DE8070B582B060E085685E00032495
:100F0400B44025EA0405CC68B4402C4384604568A9
:100F140025EA02054C68C4F300129A402A43426051
:100F24005AE0DC08083450F8246003F00702950006
:100F34000F22AA4026EA020E0A69AA4042EA0E02D9
:100F440040F824205CE0062200E0002202FA0EF2BF
:100F54002A430234574D45F82420574A94686FEACF
:100F64000C0224EA0C054E6816F4801F01D04CEAEA
:100F74000405514CA560E46802EA04054E6816F4C1
:100F8400001F01D04CEA04054B4CE560646802EA9A
:100F940004054E6816F4003F01D04CEA0405464CA3
:100FA4006560246822404D6815F4803F01D04CEA06
:100FB4000402414C226001330F2B77D801229A405E
:100FC4000C6804EA020C32EA0404F4D14C6804F01C
:100FD4000304013C012C90D94A6802F00302032A5D
:100FE40009D0C4685D000322AA4024EA02048A6886
:100FF400AA402243C2604A6802F00302022A90D047
:1010040004684FEA430E032202FA0EF224EA0204B1
:101014004A6802F0030202FA0EF2224302604A68AE
:1010240012F4403FC7D000220192244A546C44F485
:1010340080445464526C02F480420192019A9C08E8
:10104400A51C1C4A52F8255003F003024FEA820EF5
:101054000F2202FA0EF225EA0205194A90423FF4E1
:1010640074AF02F58062904216D002F5806290421D
:1010740014D002F58062904212D002F58062904250
:1010840010D002F5806290420ED002F58062904248
:101094003FF459AF072259E7012257E7022255E7E7
:1010A400032253E7042251E705224FE702B070BD43
:1010B400704700BF00380140003C01400038024046
:1010C400000002400AB181617047090481617047E0
:1010D400074AD36823F4E0631B041B0C000200F4EA
:1010E400E060034343F0BF6343F40033D3607047CD
:1010F40000ED00E000B5194BDB68C3F30223C3F134
:10110400070CBCF1040F28BF4FF0040C03F1040ECC
:10111400BEF1060F18D9033B4FF0FF3E0EFA0CFC4C
:1011240021EA0C0199400EFA03F322EA030319435E
:1011340000280BDB0901C9B200F1604000F56140F1
:1011440080F800135DF804FB0023E5E700F00F00CE
:101154000901C9B2024B1954F4E700BF00ED00E0E5
:1011640014ED00E00138B0F1807F0BD24FF0E023A2
:101174005861054AF02182F8231000209861072263
:101184001A6170470120704700ED00E010B5044675
:101194000E4B18784FF47A73B3FBF0F30C4A1068D3
:1011A400B0FBF3F0FFF7DEFF68B90F2C01D9012083
:1011B4000AE0002221464FF0FF30FFF79BFF054B6A
:1011C4001C60002000E0012010BD00BF00000020D2
:1011D400080000200400002008B50B4B1A6842F4F4
:1011E40000721A601A6842F480621A601A6842F443
:1011F40080721A600320FFF76BFF0020FFF7C6FF21
:10120400FFF7C2FA002008BD003C0240034A1168FF
:10121400034B1B780B441360704700BF2800002069
:1012240000000020014B1868704700BF2800002010
:1012340038B50446FFF7F6FF0546B4F1FF3F02D088
:10124400044B1B781C44FFF7EDFF401BA042FAD36C
:1012540038BD00BF00000020034AD2F8883043F4B0
:101264007003C2F88830704700ED00E0DFF834D036
:101274000D480E490E4A002302E0D458C4500433EA
:10128400C4188C42F9D30B4A0B4C002301E01360C1
:101294000432A242FBD3FFF7DFFFFEF7D5FFFFF7CF
:1012A40049FA704700000220000000200C000020D2
:1012B400FC1200080C0000202C000020FEE70000B7
:1012C400F8B500BFF8BC08BC9E467047F8B500BF2F
:0812D400F8BC08BC9E467047FF
:1012DC0000000000000000000102030406070809DA
:0812EC007CF0FF7F010000000F
:0412F4002D020008BF
:0412F80005020008E3
:0C12FC0001000000100000000024F400BD
:04000005080012716C
:00000001FF
